{
  "contractName": "MedicalRecordContract",
  "abi": [
    {
      "inputs": [
        {
          "internalType": "string",
          "name": "_fullName",
          "type": "string"
        },
        {
          "internalType": "string",
          "name": "_dateOfBirth",
          "type": "string"
        },
        {
          "internalType": "bool",
          "name": "_sex",
          "type": "bool"
        },
        {
          "internalType": "string",
          "name": "_phone",
          "type": "string"
        },
        {
          "internalType": "string",
          "name": "_email",
          "type": "string"
        },
        {
          "internalType": "string",
          "name": "_image",
          "type": "string"
        },
        {
          "internalType": "string",
          "name": "_id",
          "type": "string"
        }
      ],
      "name": "addPatient",
      "outputs": [],
      "stateMutability": "nonpayable",
      "type": "function"
    },
    {
      "inputs": [
        {
          "internalType": "string",
          "name": "_fullName",
          "type": "string"
        },
        {
          "internalType": "string",
          "name": "_phone",
          "type": "string"
        },
        {
          "internalType": "string",
          "name": "_email",
          "type": "string"
        },
        {
          "internalType": "string",
          "name": "_image",
          "type": "string"
        },
        {
          "internalType": "string",
          "name": "_id",
          "type": "string"
        }
      ],
      "name": "addDoctor",
      "outputs": [],
      "stateMutability": "nonpayable",
      "type": "function"
    },
    {
      "inputs": [
        {
          "internalType": "uint256",
          "name": "_day",
          "type": "uint256"
        },
        {
          "internalType": "uint256",
          "name": "_month",
          "type": "uint256"
        },
        {
          "internalType": "uint256",
          "name": "_year",
          "type": "uint256"
        },
        {
          "internalType": "string",
          "name": "_time",
          "type": "string"
        }
      ],
      "name": "addDate",
      "outputs": [],
      "stateMutability": "nonpayable",
      "type": "function"
    },
    {
      "inputs": [
        {
          "internalType": "string",
          "name": "_medicalName",
          "type": "string"
        },
        {
          "internalType": "uint256",
          "name": "_quantity",
          "type": "uint256"
        },
        {
          "internalType": "string",
          "name": "_unitOfCalculation",
          "type": "string"
        }
      ],
      "name": "addMedicals",
      "outputs": [],
      "stateMutability": "nonpayable",
      "type": "function"
    },
    {
      "inputs": [
        {
          "internalType": "string",
          "name": "_patientId",
          "type": "string"
        },
        {
          "internalType": "string",
          "name": "_doctorId",
          "type": "string"
        },
        {
          "internalType": "string",
          "name": "_diagnosisDisease",
          "type": "string"
        },
        {
          "internalType": "string",
          "name": "_symptoms",
          "type": "string"
        },
        {
          "internalType": "string",
          "name": "_note",
          "type": "string"
        },
        {
          "internalType": "string",
          "name": "_dateKey",
          "type": "string"
        },
        {
          "internalType": "string",
          "name": "_appointment",
          "type": "string"
        },
        {
          "internalType": "string[]",
          "name": "_images",
          "type": "string[]"
        },
        {
          "internalType": "string",
          "name": "_id",
          "type": "string"
        },
        {
          "components": [
            {
              "internalType": "string[]",
              "name": "medicalNames",
              "type": "string[]"
            },
            {
              "internalType": "uint256[]",
              "name": "quantities",
              "type": "uint256[]"
            },
            {
              "internalType": "string[]",
              "name": "unitsOfCalculation",
              "type": "string[]"
            }
          ],
          "internalType": "struct MedicalRecordContract.MedicalInput",
          "name": "medicalInput",
          "type": "tuple"
        }
      ],
      "name": "addMedicalRecord",
      "outputs": [],
      "stateMutability": "nonpayable",
      "type": "function"
    },
    {
      "inputs": [
        {
          "internalType": "string",
          "name": "_id",
          "type": "string"
        }
      ],
      "name": "getPatient",
      "outputs": [
        {
          "components": [
            {
              "internalType": "string",
              "name": "fullName",
              "type": "string"
            },
            {
              "internalType": "string",
              "name": "dateOfBirth",
              "type": "string"
            },
            {
              "internalType": "bool",
              "name": "sex",
              "type": "bool"
            },
            {
              "internalType": "string",
              "name": "phone",
              "type": "string"
            },
            {
              "internalType": "string",
              "name": "email",
              "type": "string"
            },
            {
              "internalType": "string",
              "name": "image",
              "type": "string"
            },
            {
              "internalType": "string",
              "name": "_id",
              "type": "string"
            }
          ],
          "internalType": "struct MedicalRecordContract.Patient",
          "name": "",
          "type": "tuple"
        }
      ],
      "stateMutability": "view",
      "type": "function"
    },
    {
      "inputs": [
        {
          "internalType": "string",
          "name": "_id",
          "type": "string"
        }
      ],
      "name": "getDoctor",
      "outputs": [
        {
          "components": [
            {
              "internalType": "string",
              "name": "fullName",
              "type": "string"
            },
            {
              "internalType": "string",
              "name": "email",
              "type": "string"
            },
            {
              "internalType": "string",
              "name": "phone",
              "type": "string"
            },
            {
              "internalType": "string",
              "name": "image",
              "type": "string"
            },
            {
              "internalType": "string",
              "name": "_id",
              "type": "string"
            }
          ],
          "internalType": "struct MedicalRecordContract.Doctor",
          "name": "",
          "type": "tuple"
        }
      ],
      "stateMutability": "view",
      "type": "function"
    },
    {
      "inputs": [
        {
          "internalType": "string",
          "name": "_key",
          "type": "string"
        }
      ],
      "name": "getDate",
      "outputs": [
        {
          "components": [
            {
              "internalType": "uint256",
              "name": "day",
              "type": "uint256"
            },
            {
              "internalType": "uint256",
              "name": "month",
              "type": "uint256"
            },
            {
              "internalType": "uint256",
              "name": "year",
              "type": "uint256"
            },
            {
              "internalType": "string",
              "name": "time",
              "type": "string"
            }
          ],
          "internalType": "struct MedicalRecordContract.Date",
          "name": "",
          "type": "tuple"
        }
      ],
      "stateMutability": "view",
      "type": "function"
    },
    {
      "inputs": [
        {
          "internalType": "string",
          "name": "_key",
          "type": "string"
        }
      ],
      "name": "getMedical",
      "outputs": [
        {
          "components": [
            {
              "internalType": "string",
              "name": "medicalName",
              "type": "string"
            },
            {
              "internalType": "uint256",
              "name": "quantity",
              "type": "uint256"
            },
            {
              "internalType": "string",
              "name": "unitOfCalculation",
              "type": "string"
            }
          ],
          "internalType": "struct MedicalRecordContract.Medical",
          "name": "",
          "type": "tuple"
        }
      ],
      "stateMutability": "view",
      "type": "function"
    },
    {
      "inputs": [
        {
          "internalType": "string",
          "name": "_key",
          "type": "string"
        }
      ],
      "name": "getMedicalRecord",
      "outputs": [
        {
          "components": [
            {
              "internalType": "string",
              "name": "patient",
              "type": "string"
            },
            {
              "internalType": "string",
              "name": "doctor",
              "type": "string"
            },
            {
              "internalType": "string",
              "name": "diagnosisDisease",
              "type": "string"
            },
            {
              "internalType": "string",
              "name": "symptoms",
              "type": "string"
            },
            {
              "internalType": "string",
              "name": "note",
              "type": "string"
            },
            {
              "components": [
                {
                  "internalType": "string",
                  "name": "medicalName",
                  "type": "string"
                },
                {
                  "internalType": "uint256",
                  "name": "quantity",
                  "type": "uint256"
                },
                {
                  "internalType": "string",
                  "name": "unitOfCalculation",
                  "type": "string"
                }
              ],
              "internalType": "struct MedicalRecordContract.Medical[]",
              "name": "medical",
              "type": "tuple[]"
            },
            {
              "internalType": "string",
              "name": "date",
              "type": "string"
            },
            {
              "internalType": "string",
              "name": "appointment",
              "type": "string"
            },
            {
              "internalType": "string[]",
              "name": "images",
              "type": "string[]"
            },
            {
              "internalType": "string",
              "name": "_id",
              "type": "string"
            }
          ],
          "internalType": "struct MedicalRecordContract.MedicalRecord",
          "name": "",
          "type": "tuple"
        }
      ],
      "stateMutability": "view",
      "type": "function"
    },
    {
      "inputs": [],
      "name": "getAllPatients",
      "outputs": [
        {
          "components": [
            {
              "internalType": "string",
              "name": "fullName",
              "type": "string"
            },
            {
              "internalType": "string",
              "name": "dateOfBirth",
              "type": "string"
            },
            {
              "internalType": "bool",
              "name": "sex",
              "type": "bool"
            },
            {
              "internalType": "string",
              "name": "phone",
              "type": "string"
            },
            {
              "internalType": "string",
              "name": "email",
              "type": "string"
            },
            {
              "internalType": "string",
              "name": "image",
              "type": "string"
            },
            {
              "internalType": "string",
              "name": "_id",
              "type": "string"
            }
          ],
          "internalType": "struct MedicalRecordContract.Patient[]",
          "name": "",
          "type": "tuple[]"
        }
      ],
      "stateMutability": "view",
      "type": "function"
    },
    {
      "inputs": [],
      "name": "getAllDoctors",
      "outputs": [
        {
          "components": [
            {
              "internalType": "string",
              "name": "fullName",
              "type": "string"
            },
            {
              "internalType": "string",
              "name": "email",
              "type": "string"
            },
            {
              "internalType": "string",
              "name": "phone",
              "type": "string"
            },
            {
              "internalType": "string",
              "name": "image",
              "type": "string"
            },
            {
              "internalType": "string",
              "name": "_id",
              "type": "string"
            }
          ],
          "internalType": "struct MedicalRecordContract.Doctor[]",
          "name": "",
          "type": "tuple[]"
        }
      ],
      "stateMutability": "view",
      "type": "function"
    },
    {
      "inputs": [],
      "name": "getAllDates",
      "outputs": [
        {
          "components": [
            {
              "internalType": "uint256",
              "name": "day",
              "type": "uint256"
            },
            {
              "internalType": "uint256",
              "name": "month",
              "type": "uint256"
            },
            {
              "internalType": "uint256",
              "name": "year",
              "type": "uint256"
            },
            {
              "internalType": "string",
              "name": "time",
              "type": "string"
            }
          ],
          "internalType": "struct MedicalRecordContract.Date[]",
          "name": "",
          "type": "tuple[]"
        }
      ],
      "stateMutability": "view",
      "type": "function"
    },
    {
      "inputs": [],
      "name": "getAllMedicals",
      "outputs": [
        {
          "components": [
            {
              "internalType": "string",
              "name": "medicalName",
              "type": "string"
            },
            {
              "internalType": "uint256",
              "name": "quantity",
              "type": "uint256"
            },
            {
              "internalType": "string",
              "name": "unitOfCalculation",
              "type": "string"
            }
          ],
          "internalType": "struct MedicalRecordContract.Medical[]",
          "name": "",
          "type": "tuple[]"
        }
      ],
      "stateMutability": "view",
      "type": "function"
    },
    {
      "inputs": [],
      "name": "getAllMedicalRecords",
      "outputs": [
        {
          "components": [
            {
              "internalType": "string",
              "name": "patient",
              "type": "string"
            },
            {
              "internalType": "string",
              "name": "doctor",
              "type": "string"
            },
            {
              "internalType": "string",
              "name": "diagnosisDisease",
              "type": "string"
            },
            {
              "internalType": "string",
              "name": "symptoms",
              "type": "string"
            },
            {
              "internalType": "string",
              "name": "note",
              "type": "string"
            },
            {
              "components": [
                {
                  "internalType": "string",
                  "name": "medicalName",
                  "type": "string"
                },
                {
                  "internalType": "uint256",
                  "name": "quantity",
                  "type": "uint256"
                },
                {
                  "internalType": "string",
                  "name": "unitOfCalculation",
                  "type": "string"
                }
              ],
              "internalType": "struct MedicalRecordContract.Medical[]",
              "name": "medical",
              "type": "tuple[]"
            },
            {
              "internalType": "string",
              "name": "date",
              "type": "string"
            },
            {
              "internalType": "string",
              "name": "appointment",
              "type": "string"
            },
            {
              "internalType": "string[]",
              "name": "images",
              "type": "string[]"
            },
            {
              "internalType": "string",
              "name": "_id",
              "type": "string"
            }
          ],
          "internalType": "struct MedicalRecordContract.MedicalRecord[]",
          "name": "",
          "type": "tuple[]"
        }
      ],
      "stateMutability": "view",
      "type": "function"
    }
  ],
  "bytecode": "0x608060405234801561001057600080fd5b50614f00806100206000396000f3fe608060405234801561001057600080fd5b50600436106100f55760003560e01c80638b6d2c9411610097578063cc368d5311610066578063cc368d531461025e578063d8ef02fb1461028e578063e79a7a2e146102be578063f0d95090146102ee576100f5565b80638b6d2c94146101ee578063977c613d1461020a578063a337fcb914610226578063b0aeb1d714610242576100f5565b80631f56c50a116100d35780631f56c50a146101545780636049909214610170578063616269d8146101a05780638aa58d29146101d0576100f5565b806303fce482146100fa57806318a231a9146101185780631aa05abf14610136575b600080fd5b61010261030c565b60405161010f91906132ca565b60405180910390f35b610120610528565b60405161012d9190613488565b60405180910390f35b61013e61099d565b60405161014b91906135cf565b60405180910390f35b61016e6004803603810190610169919061373a565b610b3b565b005b61018a60048036038101906101859190613841565b610c33565b604051610197919061391c565b60405180910390f35b6101ba60048036038101906101b59190613841565b610f45565b6040516101c791906139a1565b60405180910390f35b6101d861102d565b6040516101e59190613ce6565b60405180910390f35b61020860048036038101906102039190613f9f565b611812565b005b610224600480360381019061021f91906141c2565b611a7e565b005b610240600480360381019061023b919061430c565b611bbc565b005b61025c6004803603810190610257919061438f565b611cb6565b005b61027860048036038101906102739190613841565b611d99565b6040516102859190614533565b60405180910390f35b6102a860048036038101906102a39190613841565b6124c8565b6040516102b591906145ac565b60405180910390f35b6102d860048036038101906102d39190613841565b61262e565b6040516102e5919061468d565b60405180910390f35b6102f66129ed565b6040516103039190614803565b60405180910390f35b6060600060088054905067ffffffffffffffff81111561032f5761032e61360f565b5b60405190808252806020026020018201604052801561036857816020015b610355612f24565b81526020019060019003908161034d5790505b50905060005b6008805490508110156105205760036008828154811061039157610390614825565b5b906000526020600020016040516103a89190614957565b90815260200160405180910390206040518060600160405290816000820180546103d190614883565b80601f01602080910402602001604051908101604052809291908181526020018280546103fd90614883565b801561044a5780601f1061041f5761010080835404028352916020019161044a565b820191906000526020600020905b81548152906001019060200180831161042d57829003601f168201915b505050505081526020016001820154815260200160028201805461046d90614883565b80601f016020809104026020016040519081016040528092919081815260200182805461049990614883565b80156104e65780601f106104bb576101008083540402835291602001916104e6565b820191906000526020600020905b8154815290600101906020018083116104c957829003601f168201915b50505050508152505082828151811061050257610501614825565b5b602002602001018190525080806105189061499d565b91505061036e565b508091505090565b6060600060058054905067ffffffffffffffff81111561054b5761054a61360f565b5b60405190808252806020026020018201604052801561058457816020015b610571612f45565b8152602001906001900390816105695790505b50905060005b600580549050811015610995576000600582815481106105ad576105ac614825565b5b906000526020600020016040516105c49190614957565b90815260200160405180910390206040518060e00160405290816000820180546105ed90614883565b80601f016020809104026020016040519081016040528092919081815260200182805461061990614883565b80156106665780601f1061063b57610100808354040283529160200191610666565b820191906000526020600020905b81548152906001019060200180831161064957829003601f168201915b5050505050815260200160018201805461067f90614883565b80601f01602080910402602001604051908101604052809291908181526020018280546106ab90614883565b80156106f85780601f106106cd576101008083540402835291602001916106f8565b820191906000526020600020905b8154815290600101906020018083116106db57829003601f168201915b505050505081526020016002820160009054906101000a900460ff1615151515815260200160038201805461072c90614883565b80601f016020809104026020016040519081016040528092919081815260200182805461075890614883565b80156107a55780601f1061077a576101008083540402835291602001916107a5565b820191906000526020600020905b81548152906001019060200180831161078857829003601f168201915b505050505081526020016004820180546107be90614883565b80601f01602080910402602001604051908101604052809291908181526020018280546107ea90614883565b80156108375780601f1061080c57610100808354040283529160200191610837565b820191906000526020600020905b81548152906001019060200180831161081a57829003601f168201915b5050505050815260200160058201805461085090614883565b80601f016020809104026020016040519081016040528092919081815260200182805461087c90614883565b80156108c95780601f1061089e576101008083540402835291602001916108c9565b820191906000526020600020905b8154815290600101906020018083116108ac57829003601f168201915b505050505081526020016006820180546108e290614883565b80601f016020809104026020016040519081016040528092919081815260200182805461090e90614883565b801561095b5780601f106109305761010080835404028352916020019161095b565b820191906000526020600020905b81548152906001019060200180831161093e57829003601f168201915b50505050508152505082828151811061097757610976614825565b5b6020026020010181905250808061098d9061499d565b91505061058a565b508091505090565b6060600060078054905067ffffffffffffffff8111156109c0576109bf61360f565b5b6040519080825280602002602001820160405280156109f957816020015b6109e6612f84565b8152602001906001900390816109de5790505b50905060005b600780549050811015610b3357600260078281548110610a2257610a21614825565b5b90600052602060002001604051610a399190614957565b9081526020016040518091039020604051806080016040529081600082015481526020016001820154815260200160028201548152602001600382018054610a8090614883565b80601f0160208091040260200160405190810160405280929190818152602001828054610aac90614883565b8015610af95780601f10610ace57610100808354040283529160200191610af9565b820191906000526020600020905b815481529060010190602001808311610adc57829003601f168201915b505050505081525050828281518110610b1557610b14614825565b5b60200260200101819052508080610b2b9061499d565b9150506109ff565b508091505090565b60006040518060a0016040528087815260200185815260200186815260200184815260200183815250905080600183604051610b779190614a16565b90815260200160405180910390206000820151816000019081610b9a9190614bc4565b506020820151816001019081610bb09190614bc4565b506040820151816002019081610bc69190614bc4565b506060820151816003019081610bdc9190614bc4565b506080820151816004019081610bf29190614bc4565b50905050600682908060018154018082558091505060019003906000526020600020016000909190919091509081610c2a9190614bc4565b50505050505050565b610c3b612fac565b600182604051610c4b9190614a16565b90815260200160405180910390206040518060a0016040529081600082018054610c7490614883565b80601f0160208091040260200160405190810160405280929190818152602001828054610ca090614883565b8015610ced5780601f10610cc257610100808354040283529160200191610ced565b820191906000526020600020905b815481529060010190602001808311610cd057829003601f168201915b50505050508152602001600182018054610d0690614883565b80601f0160208091040260200160405190810160405280929190818152602001828054610d3290614883565b8015610d7f5780601f10610d5457610100808354040283529160200191610d7f565b820191906000526020600020905b815481529060010190602001808311610d6257829003601f168201915b50505050508152602001600282018054610d9890614883565b80601f0160208091040260200160405190810160405280929190818152602001828054610dc490614883565b8015610e115780601f10610de657610100808354040283529160200191610e11565b820191906000526020600020905b815481529060010190602001808311610df457829003601f168201915b50505050508152602001600382018054610e2a90614883565b80601f0160208091040260200160405190810160405280929190818152602001828054610e5690614883565b8015610ea35780601f10610e7857610100808354040283529160200191610ea3565b820191906000526020600020905b815481529060010190602001808311610e8657829003601f168201915b50505050508152602001600482018054610ebc90614883565b80601f0160208091040260200160405190810160405280929190818152602001828054610ee890614883565b8015610f355780601f10610f0a57610100808354040283529160200191610f35565b820191906000526020600020905b815481529060010190602001808311610f1857829003601f168201915b5050505050815250509050919050565b610f4d612f84565b600282604051610f5d9190614a16565b9081526020016040518091039020604051806080016040529081600082015481526020016001820154815260200160028201548152602001600382018054610fa490614883565b80601f0160208091040260200160405190810160405280929190818152602001828054610fd090614883565b801561101d5780601f10610ff25761010080835404028352916020019161101d565b820191906000526020600020905b81548152906001019060200180831161100057829003601f168201915b5050505050815250509050919050565b6060600060098054905067ffffffffffffffff8111156110505761104f61360f565b5b60405190808252806020026020018201604052801561108957816020015b611076612fdb565b81526020019060019003908161106e5790505b50905060005b60098054905081101561180a576004600982815481106110b2576110b1614825565b5b906000526020600020016040516110c99190614957565b9081526020016040518091039020604051806101400160405290816000820180546110f390614883565b80601f016020809104026020016040519081016040528092919081815260200182805461111f90614883565b801561116c5780601f106111415761010080835404028352916020019161116c565b820191906000526020600020905b81548152906001019060200180831161114f57829003601f168201915b5050505050815260200160018201805461118590614883565b80601f01602080910402602001604051908101604052809291908181526020018280546111b190614883565b80156111fe5780601f106111d3576101008083540402835291602001916111fe565b820191906000526020600020905b8154815290600101906020018083116111e157829003601f168201915b5050505050815260200160028201805461121790614883565b80601f016020809104026020016040519081016040528092919081815260200182805461124390614883565b80156112905780601f1061126557610100808354040283529160200191611290565b820191906000526020600020905b81548152906001019060200180831161127357829003601f168201915b505050505081526020016003820180546112a990614883565b80601f01602080910402602001604051908101604052809291908181526020018280546112d590614883565b80156113225780601f106112f757610100808354040283529160200191611322565b820191906000526020600020905b81548152906001019060200180831161130557829003601f168201915b5050505050815260200160048201805461133b90614883565b80601f016020809104026020016040519081016040528092919081815260200182805461136790614883565b80156113b45780601f10611389576101008083540402835291602001916113b4565b820191906000526020600020905b81548152906001019060200180831161139757829003601f168201915b5050505050815260200160058201805480602002602001604051908101604052809291908181526020016000905b82821015611542578382906000526020600020906003020160405180606001604052908160008201805461141590614883565b80601f016020809104026020016040519081016040528092919081815260200182805461144190614883565b801561148e5780601f106114635761010080835404028352916020019161148e565b820191906000526020600020905b81548152906001019060200180831161147157829003601f168201915b50505050508152602001600182015481526020016002820180546114b190614883565b80601f01602080910402602001604051908101604052809291908181526020018280546114dd90614883565b801561152a5780601f106114ff5761010080835404028352916020019161152a565b820191906000526020600020905b81548152906001019060200180831161150d57829003601f168201915b505050505081525050815260200190600101906113e2565b50505050815260200160068201805461155a90614883565b80601f016020809104026020016040519081016040528092919081815260200182805461158690614883565b80156115d35780601f106115a8576101008083540402835291602001916115d3565b820191906000526020600020905b8154815290600101906020018083116115b657829003601f168201915b505050505081526020016007820180546115ec90614883565b80601f016020809104026020016040519081016040528092919081815260200182805461161890614883565b80156116655780601f1061163a57610100808354040283529160200191611665565b820191906000526020600020905b81548152906001019060200180831161164857829003601f168201915b5050505050815260200160088201805480602002602001604051908101604052809291908181526020016000905b8282101561173f5783829060005260206000200180546116b290614883565b80601f01602080910402602001604051908101604052809291908181526020018280546116de90614883565b801561172b5780601f106117005761010080835404028352916020019161172b565b820191906000526020600020905b81548152906001019060200180831161170e57829003601f168201915b505050505081526020019060010190611693565b50505050815260200160098201805461175790614883565b80601f016020809104026020016040519081016040528092919081815260200182805461178390614883565b80156117d05780601f106117a5576101008083540402835291602001916117d0565b820191906000526020600020905b8154815290600101906020018083116117b357829003601f168201915b5050505050815250508282815181106117ec576117eb614825565b5b602002602001018190525080806118029061499d565b91505061108f565b508091505090565b8060200151518160000151511480156118345750806040015151816020015151145b611873576040517f08c379a000000000000000000000000000000000000000000000000000000000815260040161186a90614d19565b60405180910390fd5b60006004836040516118859190614a16565b908152602001604051809103902090508a8160000190816118a69190614bc4565b50898160010190816118b89190614bc4565b50888160020190816118ca9190614bc4565b50878160030190816118dc9190614bc4565b50868160040190816118ee9190614bc4565b50858160060190816119009190614bc4565b50848160070190816119129190614bc4565b508381600801908051906020019061192b92919061302e565b508281600901908161193d9190614bc4565b5060005b826000015151811015611a3b578160050160405180606001604052808560000151848151811061197457611973614825565b5b602002602001015181526020018560200151848151811061199857611997614825565b5b60200260200101518152602001856040015184815181106119bc576119bb614825565b5b602002602001015181525090806001815401808255809150506001900390600052602060002090600302016000909190919091506000820151816000019081611a059190614bc4565b50602082015181600101556040820151816002019081611a259190614bc4565b5050508080611a339061499d565b915050611941565b50600983908060018154018082558091505060019003906000526020600020016000909190919091509081611a709190614bc4565b505050505050505050505050565b60006040518060e00160405280898152602001888152602001871515815260200186815260200185815260200184815260200183815250905080600083604051611ac89190614a16565b90815260200160405180910390206000820151816000019081611aeb9190614bc4565b506020820151816001019081611b019190614bc4565b5060408201518160020160006101000a81548160ff0219169083151502179055506060820151816003019081611b379190614bc4565b506080820151816004019081611b4d9190614bc4565b5060a0820151816005019081611b639190614bc4565b5060c0820151816006019081611b799190614bc4565b50905050600582908060018154018082558091505060019003906000526020600020016000909190919091509081611bb19190614bc4565b505050505050505050565b600060405180608001604052808681526020018581526020018481526020018381525090506000611bec86612db5565b611bf586612db5565b611bfe86612db5565b85604051602001611c129493929190614d39565b604051602081830303815290604052905081600282604051611c349190614a16565b90815260200160405180910390206000820151816000015560208201518160010155604082015181600201556060820151816003019081611c759190614bc4565b50905050600781908060018154018082558091505060019003906000526020600020016000909190919091509081611cad9190614bc4565b50505050505050565b60006040518060600160405280858152602001848152602001838152509050600084611ce185612db5565b84604051602001611cf493929190614d77565b604051602081830303815290604052905081600382604051611d169190614a16565b90815260200160405180910390206000820151816000019081611d399190614bc4565b50602082015181600101556040820151816002019081611d599190614bc4565b50905050600881908060018154018082558091505060019003906000526020600020016000909190919091509081611d919190614bc4565b505050505050565b611da1612fdb565b600482604051611db19190614a16565b908152602001604051809103902060405180610140016040529081600082018054611ddb90614883565b80601f0160208091040260200160405190810160405280929190818152602001828054611e0790614883565b8015611e545780601f10611e2957610100808354040283529160200191611e54565b820191906000526020600020905b815481529060010190602001808311611e3757829003601f168201915b50505050508152602001600182018054611e6d90614883565b80601f0160208091040260200160405190810160405280929190818152602001828054611e9990614883565b8015611ee65780601f10611ebb57610100808354040283529160200191611ee6565b820191906000526020600020905b815481529060010190602001808311611ec957829003601f168201915b50505050508152602001600282018054611eff90614883565b80601f0160208091040260200160405190810160405280929190818152602001828054611f2b90614883565b8015611f785780601f10611f4d57610100808354040283529160200191611f78565b820191906000526020600020905b815481529060010190602001808311611f5b57829003601f168201915b50505050508152602001600382018054611f9190614883565b80601f0160208091040260200160405190810160405280929190818152602001828054611fbd90614883565b801561200a5780601f10611fdf5761010080835404028352916020019161200a565b820191906000526020600020905b815481529060010190602001808311611fed57829003601f168201915b5050505050815260200160048201805461202390614883565b80601f016020809104026020016040519081016040528092919081815260200182805461204f90614883565b801561209c5780601f106120715761010080835404028352916020019161209c565b820191906000526020600020905b81548152906001019060200180831161207f57829003601f168201915b5050505050815260200160058201805480602002602001604051908101604052809291908181526020016000905b8282101561222a57838290600052602060002090600302016040518060600160405290816000820180546120fd90614883565b80601f016020809104026020016040519081016040528092919081815260200182805461212990614883565b80156121765780601f1061214b57610100808354040283529160200191612176565b820191906000526020600020905b81548152906001019060200180831161215957829003601f168201915b505050505081526020016001820154815260200160028201805461219990614883565b80601f01602080910402602001604051908101604052809291908181526020018280546121c590614883565b80156122125780601f106121e757610100808354040283529160200191612212565b820191906000526020600020905b8154815290600101906020018083116121f557829003601f168201915b505050505081525050815260200190600101906120ca565b50505050815260200160068201805461224290614883565b80601f016020809104026020016040519081016040528092919081815260200182805461226e90614883565b80156122bb5780601f10612290576101008083540402835291602001916122bb565b820191906000526020600020905b81548152906001019060200180831161229e57829003601f168201915b505050505081526020016007820180546122d490614883565b80601f016020809104026020016040519081016040528092919081815260200182805461230090614883565b801561234d5780601f106123225761010080835404028352916020019161234d565b820191906000526020600020905b81548152906001019060200180831161233057829003601f168201915b5050505050815260200160088201805480602002602001604051908101604052809291908181526020016000905b8282101561242757838290600052602060002001805461239a90614883565b80601f01602080910402602001604051908101604052809291908181526020018280546123c690614883565b80156124135780601f106123e857610100808354040283529160200191612413565b820191906000526020600020905b8154815290600101906020018083116123f657829003601f168201915b50505050508152602001906001019061237b565b50505050815260200160098201805461243f90614883565b80601f016020809104026020016040519081016040528092919081815260200182805461246b90614883565b80156124b85780601f1061248d576101008083540402835291602001916124b8565b820191906000526020600020905b81548152906001019060200180831161249b57829003601f168201915b5050505050815250509050919050565b6124d0612f24565b6003826040516124e09190614a16565b908152602001604051809103902060405180606001604052908160008201805461250990614883565b80601f016020809104026020016040519081016040528092919081815260200182805461253590614883565b80156125825780601f1061255757610100808354040283529160200191612582565b820191906000526020600020905b81548152906001019060200180831161256557829003601f168201915b50505050508152602001600182015481526020016002820180546125a590614883565b80601f01602080910402602001604051908101604052809291908181526020018280546125d190614883565b801561261e5780601f106125f35761010080835404028352916020019161261e565b820191906000526020600020905b81548152906001019060200180831161260157829003601f168201915b5050505050815250509050919050565b612636612f45565b6000826040516126469190614a16565b90815260200160405180910390206040518060e001604052908160008201805461266f90614883565b80601f016020809104026020016040519081016040528092919081815260200182805461269b90614883565b80156126e85780601f106126bd576101008083540402835291602001916126e8565b820191906000526020600020905b8154815290600101906020018083116126cb57829003601f168201915b5050505050815260200160018201805461270190614883565b80601f016020809104026020016040519081016040528092919081815260200182805461272d90614883565b801561277a5780601f1061274f5761010080835404028352916020019161277a565b820191906000526020600020905b81548152906001019060200180831161275d57829003601f168201915b505050505081526020016002820160009054906101000a900460ff161515151581526020016003820180546127ae90614883565b80601f01602080910402602001604051908101604052809291908181526020018280546127da90614883565b80156128275780601f106127fc57610100808354040283529160200191612827565b820191906000526020600020905b81548152906001019060200180831161280a57829003601f168201915b5050505050815260200160048201805461284090614883565b80601f016020809104026020016040519081016040528092919081815260200182805461286c90614883565b80156128b95780601f1061288e576101008083540402835291602001916128b9565b820191906000526020600020905b81548152906001019060200180831161289c57829003601f168201915b505050505081526020016005820180546128d290614883565b80601f01602080910402602001604051908101604052809291908181526020018280546128fe90614883565b801561294b5780601f106129205761010080835404028352916020019161294b565b820191906000526020600020905b81548152906001019060200180831161292e57829003601f168201915b5050505050815260200160068201805461296490614883565b80601f016020809104026020016040519081016040528092919081815260200182805461299090614883565b80156129dd5780601f106129b2576101008083540402835291602001916129dd565b820191906000526020600020905b8154815290600101906020018083116129c057829003601f168201915b5050505050815250509050919050565b6060600060068054905067ffffffffffffffff811115612a1057612a0f61360f565b5b604051908082528060200260200182016040528015612a4957816020015b612a36612fac565b815260200190600190039081612a2e5790505b50905060005b600680549050811015612dad57600160068281548110612a7257612a71614825565b5b90600052602060002001604051612a899190614957565b90815260200160405180910390206040518060a0016040529081600082018054612ab290614883565b80601f0160208091040260200160405190810160405280929190818152602001828054612ade90614883565b8015612b2b5780601f10612b0057610100808354040283529160200191612b2b565b820191906000526020600020905b815481529060010190602001808311612b0e57829003601f168201915b50505050508152602001600182018054612b4490614883565b80601f0160208091040260200160405190810160405280929190818152602001828054612b7090614883565b8015612bbd5780601f10612b9257610100808354040283529160200191612bbd565b820191906000526020600020905b815481529060010190602001808311612ba057829003601f168201915b50505050508152602001600282018054612bd690614883565b80601f0160208091040260200160405190810160405280929190818152602001828054612c0290614883565b8015612c4f5780601f10612c2457610100808354040283529160200191612c4f565b820191906000526020600020905b815481529060010190602001808311612c3257829003601f168201915b50505050508152602001600382018054612c6890614883565b80601f0160208091040260200160405190810160405280929190818152602001828054612c9490614883565b8015612ce15780601f10612cb657610100808354040283529160200191612ce1565b820191906000526020600020905b815481529060010190602001808311612cc457829003601f168201915b50505050508152602001600482018054612cfa90614883565b80601f0160208091040260200160405190810160405280929190818152602001828054612d2690614883565b8015612d735780601f10612d4857610100808354040283529160200191612d73565b820191906000526020600020905b815481529060010190602001808311612d5657829003601f168201915b505050505081525050828281518110612d8f57612d8e614825565b5b60200260200101819052508080612da59061499d565b915050612a4f565b508091505090565b606060008203612dfc576040518060400160405280600181526020017f30000000000000000000000000000000000000000000000000000000000000008152509050612f1f565b600082905060005b60008214612e2e578080612e179061499d565b915050600a82612e279190614dd7565b9150612e04565b60008167ffffffffffffffff811115612e4a57612e4961360f565b5b6040519080825280601f01601f191660200182016040528015612e7c5781602001600182028036833780820191505090505b5090506000600183612e8e9190614e08565b90505b60008614612f1757600a86612ea69190614e3c565b6030612eb29190614e6d565b60f81b828280612ec190614ea1565b935081518110612ed457612ed3614825565b5b60200101907effffffffffffffffffffffffffffffffffffffffffffffffffffffffffffff1916908160001a905350600a86612f109190614dd7565b9550612e91565b819450505050505b919050565b60405180606001604052806060815260200160008152602001606081525090565b6040518060e001604052806060815260200160608152602001600015158152602001606081526020016060815260200160608152602001606081525090565b6040518060800160405280600081526020016000815260200160008152602001606081525090565b6040518060a0016040528060608152602001606081526020016060815260200160608152602001606081525090565b604051806101400160405280606081526020016060815260200160608152602001606081526020016060815260200160608152602001606081526020016060815260200160608152602001606081525090565b828054828255906000526020600020908101928215613076579160200282015b828111156130755782518290816130659190614bc4565b509160200191906001019061304e565b5b5090506130839190613087565b5090565b5b808211156130a7576000818161309e91906130ab565b50600101613088565b5090565b5080546130b790614883565b6000825580601f106130c957506130e8565b601f0160209004906000526020600020908101906130e791906130eb565b5b50565b5b808211156131045760008160009055506001016130ec565b5090565b600081519050919050565b600082825260208201905092915050565b6000819050602082019050919050565b600081519050919050565b600082825260208201905092915050565b60005b8381101561316e578082015181840152602081019050613153565b60008484015250505050565b6000601f19601f8301169050919050565b600061319682613134565b6131a0818561313f565b93506131b0818560208601613150565b6131b98161317a565b840191505092915050565b6000819050919050565b6131d7816131c4565b82525050565b600060608301600083015184820360008601526131fa828261318b565b915050602083015161320f60208601826131ce565b5060408301518482036040860152613227828261318b565b9150508091505092915050565b600061324083836131dd565b905092915050565b6000602082019050919050565b600061326082613108565b61326a8185613113565b93508360208202850161327c85613124565b8060005b858110156132b857848403895281516132998582613234565b94506132a483613248565b925060208a01995050600181019050613280565b50829750879550505050505092915050565b600060208201905081810360008301526132e48184613255565b905092915050565b600081519050919050565b600082825260208201905092915050565b6000819050602082019050919050565b60008115159050919050565b61332d81613318565b82525050565b600060e0830160008301518482036000860152613350828261318b565b9150506020830151848203602086015261336a828261318b565b915050604083015161337f6040860182613324565b5060608301518482036060860152613397828261318b565b915050608083015184820360808601526133b1828261318b565b91505060a083015184820360a08601526133cb828261318b565b91505060c083015184820360c08601526133e5828261318b565b9150508091505092915050565b60006133fe8383613333565b905092915050565b6000602082019050919050565b600061341e826132ec565b61342881856132f7565b93508360208202850161343a85613308565b8060005b85811015613476578484038952815161345785826133f2565b945061346283613406565b925060208a0199505060018101905061343e565b50829750879550505050505092915050565b600060208201905081810360008301526134a28184613413565b905092915050565b600081519050919050565b600082825260208201905092915050565b6000819050602082019050919050565b60006080830160008301516134ee60008601826131ce565b50602083015161350160208601826131ce565b50604083015161351460408601826131ce565b506060830151848203606086015261352c828261318b565b9150508091505092915050565b600061354583836134d6565b905092915050565b6000602082019050919050565b6000613565826134aa565b61356f81856134b5565b935083602082028501613581856134c6565b8060005b858110156135bd578484038952815161359e8582613539565b94506135a98361354d565b925060208a01995050600181019050613585565b50829750879550505050505092915050565b600060208201905081810360008301526135e9818461355a565b905092915050565b6000604051905090565b600080fd5b600080fd5b600080fd5b600080fd5b7f4e487b7100000000000000000000000000000000000000000000000000000000600052604160045260246000fd5b6136478261317a565b810181811067ffffffffffffffff821117156136665761366561360f565b5b80604052505050565b60006136796135f1565b9050613685828261363e565b919050565b600067ffffffffffffffff8211156136a5576136a461360f565b5b6136ae8261317a565b9050602081019050919050565b82818337600083830152505050565b60006136dd6136d88461368a565b61366f565b9050828152602081018484840111156136f9576136f861360a565b5b6137048482856136bb565b509392505050565b600082601f83011261372157613720613605565b5b81356137318482602086016136ca565b91505092915050565b600080600080600060a08688031215613756576137556135fb565b5b600086013567ffffffffffffffff81111561377457613773613600565b5b6137808882890161370c565b955050602086013567ffffffffffffffff8111156137a1576137a0613600565b5b6137ad8882890161370c565b945050604086013567ffffffffffffffff8111156137ce576137cd613600565b5b6137da8882890161370c565b935050606086013567ffffffffffffffff8111156137fb576137fa613600565b5b6138078882890161370c565b925050608086013567ffffffffffffffff81111561382857613827613600565b5b6138348882890161370c565b9150509295509295909350565b600060208284031215613857576138566135fb565b5b600082013567ffffffffffffffff81111561387557613874613600565b5b6138818482850161370c565b91505092915050565b600060a08301600083015184820360008601526138a7828261318b565b915050602083015184820360208601526138c1828261318b565b915050604083015184820360408601526138db828261318b565b915050606083015184820360608601526138f5828261318b565b9150506080830151848203608086015261390f828261318b565b9150508091505092915050565b60006020820190508181036000830152613936818461388a565b905092915050565b600060808301600083015161395660008601826131ce565b50602083015161396960208601826131ce565b50604083015161397c60408601826131ce565b5060608301518482036060860152613994828261318b565b9150508091505092915050565b600060208201905081810360008301526139bb818461393e565b905092915050565b600081519050919050565b600082825260208201905092915050565b6000819050602082019050919050565b600082825260208201905092915050565b6000613a0b82613108565b613a1581856139ef565b935083602082028501613a2785613124565b8060005b85811015613a635784840389528151613a448582613234565b9450613a4f83613248565b925060208a01995050600181019050613a2b565b50829750879550505050505092915050565b600081519050919050565b600082825260208201905092915050565b6000819050602082019050919050565b6000613aad838361318b565b905092915050565b6000602082019050919050565b6000613acd82613a75565b613ad78185613a80565b935083602082028501613ae985613a91565b8060005b85811015613b255784840389528151613b068582613aa1565b9450613b1183613ab5565b925060208a01995050600181019050613aed565b50829750879550505050505092915050565b6000610140830160008301518482036000860152613b55828261318b565b91505060208301518482036020860152613b6f828261318b565b91505060408301518482036040860152613b89828261318b565b91505060608301518482036060860152613ba3828261318b565b91505060808301518482036080860152613bbd828261318b565b91505060a083015184820360a0860152613bd78282613a00565b91505060c083015184820360c0860152613bf1828261318b565b91505060e083015184820360e0860152613c0b828261318b565b915050610100830151848203610100860152613c278282613ac2565b915050610120830151848203610120860152613c43828261318b565b9150508091505092915050565b6000613c5c8383613b37565b905092915050565b6000602082019050919050565b6000613c7c826139c3565b613c8681856139ce565b935083602082028501613c98856139df565b8060005b85811015613cd45784840389528151613cb58582613c50565b9450613cc083613c64565b925060208a01995050600181019050613c9c565b50829750879550505050505092915050565b60006020820190508181036000830152613d008184613c71565b905092915050565b600067ffffffffffffffff821115613d2357613d2261360f565b5b602082029050602081019050919050565b600080fd5b6000613d4c613d4784613d08565b61366f565b90508083825260208201905060208402830185811115613d6f57613d6e613d34565b5b835b81811015613db657803567ffffffffffffffff811115613d9457613d93613605565b5b808601613da1898261370c565b85526020850194505050602081019050613d71565b5050509392505050565b600082601f830112613dd557613dd4613605565b5b8135613de5848260208601613d39565b91505092915050565b600080fd5b600080fd5b600067ffffffffffffffff821115613e1357613e1261360f565b5b602082029050602081019050919050565b613e2d816131c4565b8114613e3857600080fd5b50565b600081359050613e4a81613e24565b92915050565b6000613e63613e5e84613df8565b61366f565b90508083825260208201905060208402830185811115613e8657613e85613d34565b5b835b81811015613eaf5780613e9b8882613e3b565b845260208401935050602081019050613e88565b5050509392505050565b600082601f830112613ece57613ecd613605565b5b8135613ede848260208601613e50565b91505092915050565b600060608284031215613efd57613efc613dee565b5b613f07606061366f565b9050600082013567ffffffffffffffff811115613f2757613f26613df3565b5b613f3384828501613dc0565b600083015250602082013567ffffffffffffffff811115613f5757613f56613df3565b5b613f6384828501613eb9565b602083015250604082013567ffffffffffffffff811115613f8757613f86613df3565b5b613f9384828501613dc0565b60408301525092915050565b6000806000806000806000806000806101408b8d031215613fc357613fc26135fb565b5b60008b013567ffffffffffffffff811115613fe157613fe0613600565b5b613fed8d828e0161370c565b9a505060208b013567ffffffffffffffff81111561400e5761400d613600565b5b61401a8d828e0161370c565b99505060408b013567ffffffffffffffff81111561403b5761403a613600565b5b6140478d828e0161370c565b98505060608b013567ffffffffffffffff81111561406857614067613600565b5b6140748d828e0161370c565b97505060808b013567ffffffffffffffff81111561409557614094613600565b5b6140a18d828e0161370c565b96505060a08b013567ffffffffffffffff8111156140c2576140c1613600565b5b6140ce8d828e0161370c565b95505060c08b013567ffffffffffffffff8111156140ef576140ee613600565b5b6140fb8d828e0161370c565b94505060e08b013567ffffffffffffffff81111561411c5761411b613600565b5b6141288d828e01613dc0565b9350506101008b013567ffffffffffffffff81111561414a57614149613600565b5b6141568d828e0161370c565b9250506101208b013567ffffffffffffffff81111561417857614177613600565b5b6141848d828e01613ee7565b9150509295989b9194979a5092959850565b61419f81613318565b81146141aa57600080fd5b50565b6000813590506141bc81614196565b92915050565b600080600080600080600060e0888a0312156141e1576141e06135fb565b5b600088013567ffffffffffffffff8111156141ff576141fe613600565b5b61420b8a828b0161370c565b975050602088013567ffffffffffffffff81111561422c5761422b613600565b5b6142388a828b0161370c565b96505060406142498a828b016141ad565b955050606088013567ffffffffffffffff81111561426a57614269613600565b5b6142768a828b0161370c565b945050608088013567ffffffffffffffff81111561429757614296613600565b5b6142a38a828b0161370c565b93505060a088013567ffffffffffffffff8111156142c4576142c3613600565b5b6142d08a828b0161370c565b92505060c088013567ffffffffffffffff8111156142f1576142f0613600565b5b6142fd8a828b0161370c565b91505092959891949750929550565b60008060008060808587031215614326576143256135fb565b5b600061433487828801613e3b565b945050602061434587828801613e3b565b935050604061435687828801613e3b565b925050606085013567ffffffffffffffff81111561437757614376613600565b5b6143838782880161370c565b91505092959194509250565b6000806000606084860312156143a8576143a76135fb565b5b600084013567ffffffffffffffff8111156143c6576143c5613600565b5b6143d28682870161370c565b93505060206143e386828701613e3b565b925050604084013567ffffffffffffffff81111561440457614403613600565b5b6144108682870161370c565b9150509250925092565b6000610140830160008301518482036000860152614438828261318b565b91505060208301518482036020860152614452828261318b565b9150506040830151848203604086015261446c828261318b565b91505060608301518482036060860152614486828261318b565b915050608083015184820360808601526144a0828261318b565b91505060a083015184820360a08601526144ba8282613a00565b91505060c083015184820360c08601526144d4828261318b565b91505060e083015184820360e08601526144ee828261318b565b91505061010083015184820361010086015261450a8282613ac2565b915050610120830151848203610120860152614526828261318b565b9150508091505092915050565b6000602082019050818103600083015261454d818461441a565b905092915050565b60006060830160008301518482036000860152614572828261318b565b915050602083015161458760208601826131ce565b506040830151848203604086015261459f828261318b565b9150508091505092915050565b600060208201905081810360008301526145c68184614555565b905092915050565b600060e08301600083015184820360008601526145eb828261318b565b91505060208301518482036020860152614605828261318b565b915050604083015161461a6040860182613324565b5060608301518482036060860152614632828261318b565b9150506080830151848203608086015261464c828261318b565b91505060a083015184820360a0860152614666828261318b565b91505060c083015184820360c0860152614680828261318b565b9150508091505092915050565b600060208201905081810360008301526146a781846145ce565b905092915050565b600081519050919050565b600082825260208201905092915050565b6000819050602082019050919050565b600060a08301600083015184820360008601526146f8828261318b565b91505060208301518482036020860152614712828261318b565b9150506040830151848203604086015261472c828261318b565b91505060608301518482036060860152614746828261318b565b91505060808301518482036080860152614760828261318b565b9150508091505092915050565b600061477983836146db565b905092915050565b6000602082019050919050565b6000614799826146af565b6147a381856146ba565b9350836020820285016147b5856146cb565b8060005b858110156147f157848403895281516147d2858261476d565b94506147dd83614781565b925060208a019950506001810190506147b9565b50829750879550505050505092915050565b6000602082019050818103600083015261481d818461478e565b905092915050565b7f4e487b7100000000000000000000000000000000000000000000000000000000600052603260045260246000fd5b7f4e487b7100000000000000000000000000000000000000000000000000000000600052602260045260246000fd5b6000600282049050600182168061489b57607f821691505b6020821081036148ae576148ad614854565b5b50919050565b600081905092915050565b60008190508160005260206000209050919050565b600081546148e181614883565b6148eb81866148b4565b94506001821660008114614906576001811461491b5761494e565b60ff198316865281151582028601935061494e565b614924856148bf565b60005b8381101561494657815481890152600182019150602081019050614927565b838801955050505b50505092915050565b600061496382846148d4565b915081905092915050565b7f4e487b7100000000000000000000000000000000000000000000000000000000600052601160045260246000fd5b60006149a8826131c4565b91507fffffffffffffffffffffffffffffffffffffffffffffffffffffffffffffffff82036149da576149d961496e565b5b600182019050919050565b60006149f082613134565b6149fa81856148b4565b9350614a0a818560208601613150565b80840191505092915050565b6000614a2282846149e5565b915081905092915050565b60006020601f8301049050919050565b600082821b905092915050565b600060088302614a7a7fffffffffffffffffffffffffffffffffffffffffffffffffffffffffffffffff82614a3d565b614a848683614a3d565b95508019841693508086168417925050509392505050565b6000819050919050565b6000614ac1614abc614ab7846131c4565b614a9c565b6131c4565b9050919050565b6000819050919050565b614adb83614aa6565b614aef614ae782614ac8565b848454614a4a565b825550505050565b600090565b614b04614af7565b614b0f818484614ad2565b505050565b5b81811015614b3357614b28600082614afc565b600181019050614b15565b5050565b601f821115614b7857614b49816148bf565b614b5284614a2d565b81016020851015614b61578190505b614b75614b6d85614a2d565b830182614b14565b50505b505050565b600082821c905092915050565b6000614b9b60001984600802614b7d565b1980831691505092915050565b6000614bb48383614b8a565b9150826002028217905092915050565b614bcd82613134565b67ffffffffffffffff811115614be657614be561360f565b5b614bf08254614883565b614bfb828285614b37565b600060209050601f831160018114614c2e5760008415614c1c578287015190505b614c268582614ba8565b865550614c8e565b601f198416614c3c866148bf565b60005b82811015614c6457848901518255600182019150602085019450602081019050614c3f565b86831015614c815784890151614c7d601f891682614b8a565b8355505b6001600288020188555050505b505050505050565b600082825260208201905092915050565b7f4d65646963616c20696e666f726d6174696f6e20617272617973206d7573742060008201527f68617665207468652073616d65206c656e677468000000000000000000000000602082015250565b6000614d03603483614c96565b9150614d0e82614ca7565b604082019050919050565b60006020820190508181036000830152614d3281614cf6565b9050919050565b6000614d4582876149e5565b9150614d5182866149e5565b9150614d5d82856149e5565b9150614d6982846149e5565b915081905095945050505050565b6000614d8382866149e5565b9150614d8f82856149e5565b9150614d9b82846149e5565b9150819050949350505050565b7f4e487b7100000000000000000000000000000000000000000000000000000000600052601260045260246000fd5b6000614de2826131c4565b9150614ded836131c4565b925082614dfd57614dfc614da8565b5b828204905092915050565b6000614e13826131c4565b9150614e1e836131c4565b9250828203905081811115614e3657614e3561496e565b5b92915050565b6000614e47826131c4565b9150614e52836131c4565b925082614e6257614e61614da8565b5b828206905092915050565b6000614e78826131c4565b9150614e83836131c4565b9250828201905080821115614e9b57614e9a61496e565b5b92915050565b6000614eac826131c4565b915060008203614ebf57614ebe61496e565b5b60018203905091905056fea264697066735822122002c64a6b52517af61a9aba2693de40b593f8c997303f7fe74ddeb8ac5e2d4e2264736f6c63430008130033",
  "immutableReferences": {},
  "source": "// SPDX-License-Identifier: MIT\r\npragma solidity >=0.8.19 <0.9.0;\r\n\r\ncontract MedicalRecordContract {\r\n    struct Patient {\r\n        string fullName;\r\n        string dateOfBirth;\r\n        bool sex;\r\n        string phone;\r\n        string email;\r\n        string image;\r\n        string _id;\r\n    }\r\n\r\n    struct Doctor {\r\n        string fullName;\r\n        string email;\r\n        string phone;\r\n        string image;\r\n        string _id;\r\n    }\r\n\r\n    struct Medical {\r\n        string medicalName;\r\n        uint256 quantity;\r\n        string unitOfCalculation;\r\n    }\r\n\r\n    struct Date {\r\n        uint256 day;\r\n        uint256 month;\r\n        uint256 year;\r\n        string time;\r\n    }\r\n\r\n    struct MedicalRecord {\r\n        string patient;\r\n        string doctor;\r\n        string diagnosisDisease;\r\n        string symptoms;\r\n        string note;\r\n        Medical[] medical;\r\n        string date;\r\n        string appointment;\r\n        string[] images;\r\n        string _id;\r\n    }\r\n\r\n    struct MedicalInput {\r\n        string[] medicalNames;\r\n        uint256[] quantities;\r\n        string[] unitsOfCalculation;\r\n    }\r\n\r\n    mapping(string => Patient) private patients;\r\n    mapping(string => Doctor) private doctors;\r\n    mapping(string => Date) private dates;\r\n    mapping(string => Medical) private medicals;\r\n    mapping(string => MedicalRecord) private medicalRecords;\r\n\r\n    // Mng  lu tr danh sch cc ID\r\n    string[] private patientIds;\r\n    string[] private doctorIds;\r\n    string[] private dateKeys;\r\n    string[] private medicalKeys;\r\n    string[] private medicalRecordIds;\r\n\r\n    // Chuyn i uint thnh chui\r\n    function uint2str(uint _i) internal pure returns (string memory _uintAsString) {\r\n        if (_i == 0) {\r\n            return \"0\";\r\n        }\r\n        uint j = _i;\r\n        uint len;\r\n        while (j != 0) {\r\n            len++;\r\n            j /= 10;\r\n        }\r\n        bytes memory bstr = new bytes(len);\r\n        uint k = len - 1;\r\n        while (_i != 0) {\r\n            bstr[k--] = bytes1(uint8(48 + _i % 10));\r\n            _i /= 10;\r\n        }\r\n        return string(bstr);\r\n    }\r\n\r\n    function addPatient(\r\n        string memory _fullName,\r\n        string memory _dateOfBirth,\r\n        bool _sex,\r\n        string memory _phone,\r\n        string memory _email,\r\n        string memory _image,\r\n        string memory _id\r\n    ) public {\r\n        Patient memory newPatient = Patient({\r\n            fullName: _fullName,\r\n            dateOfBirth: _dateOfBirth,\r\n            sex: _sex,\r\n            phone: _phone,\r\n            email: _email,\r\n            image: _image,\r\n            _id: _id\r\n        });\r\n        \r\n        patients[_id] = newPatient;\r\n        patientIds.push(_id); // Lu tr ID vo mng\r\n    }\r\n\r\n    function addDoctor(\r\n        string memory _fullName,\r\n        string memory _phone,\r\n        string memory _email,\r\n        string memory _image,\r\n        string memory _id\r\n    ) public {\r\n        Doctor memory newDoctor = Doctor({\r\n            fullName: _fullName,\r\n            phone: _phone,\r\n            email: _email,\r\n            image: _image,\r\n            _id: _id\r\n        });\r\n        \r\n        doctors[_id] = newDoctor;\r\n        doctorIds.push(_id); // Lu tr ID vo mng\r\n    }\r\n\r\n    function addDate(\r\n        uint _day,\r\n        uint _month,\r\n        uint _year,\r\n        string memory _time\r\n    ) public {\r\n        Date memory newDate = Date({\r\n            day : _day,\r\n            month : _month,\r\n            year : _year,\r\n            time : _time\r\n        });\r\n\r\n        string memory key = string(abi.encodePacked(\r\n            uint2str(_day),\r\n            uint2str(_month),\r\n            uint2str(_year),\r\n            _time\r\n        ));\r\n\r\n        dates[key] = newDate;\r\n        dateKeys.push(key); // Lu tr key vo mng\r\n    }\r\n\r\n    function addMedicals(\r\n        string memory _medicalName,\r\n        uint256 _quantity,\r\n        string memory _unitOfCalculation\r\n    ) public {\r\n        Medical memory newMedical = Medical({\r\n            medicalName : _medicalName,\r\n            quantity: _quantity,\r\n            unitOfCalculation :  _unitOfCalculation\r\n        });\r\n        string memory key = string(abi.encodePacked(\r\n            _medicalName,\r\n            uint2str(_quantity),\r\n            _unitOfCalculation\r\n        ));\r\n        medicals[key] = newMedical;\r\n        medicalKeys.push(key); // Lu tr key vo mng\r\n    }\r\n\r\n    function addMedicalRecord (\r\n        string memory _patientId,\r\n        string memory _doctorId,\r\n        string memory _diagnosisDisease,\r\n        string memory _symptoms,\r\n        string memory _note,\r\n        string memory _dateKey,\r\n        string memory _appointment,\r\n        string[] memory _images,\r\n        string memory _id,\r\n        MedicalInput memory medicalInput\r\n    ) external {\r\n        require(medicalInput.medicalNames.length == medicalInput.quantities.length && \r\n                medicalInput.quantities.length == medicalInput.unitsOfCalculation.length, \r\n                \"Medical information arrays must have the same length\");\r\n\r\n        MedicalRecord storage newRecord = medicalRecords[_id];\r\n        newRecord.patient = _patientId;\r\n        newRecord.doctor = _doctorId;\r\n        newRecord.diagnosisDisease = _diagnosisDisease;\r\n        newRecord.symptoms = _symptoms;\r\n        newRecord.note = _note;\r\n        newRecord.date = _dateKey;\r\n        newRecord.appointment = _appointment;\r\n        newRecord.images = _images;\r\n        newRecord._id = _id;\r\n\r\n        // Thm thng tin thuc vo medical array\r\n        for (uint256 i = 0; i < medicalInput.medicalNames.length; i++) {\r\n            newRecord.medical.push(Medical({\r\n                medicalName: medicalInput.medicalNames[i],\r\n                quantity: medicalInput.quantities[i],\r\n                unitOfCalculation: medicalInput.unitsOfCalculation[i]\r\n            }));\r\n        }\r\n\r\n        medicalRecordIds.push(_id); // Lu tr ID vo mng\r\n    }\r\n\r\n\r\n    // get\r\n\r\n    function getPatient(string memory _id) public view returns (Patient memory) {\r\n        return patients[_id];\r\n    }\r\n\r\n    function getDoctor(string memory _id) public view returns (Doctor memory) {\r\n        return doctors[_id];\r\n    }\r\n\r\n    function getDate(string memory _key) public view returns (Date memory) {\r\n        return dates[_key];\r\n    }\r\n\r\n    function getMedical(string memory _key) public view returns (Medical memory) {\r\n        return medicals[_key];\r\n    }\r\n\r\n    function getMedicalRecord(string memory _key) public view returns (MedicalRecord memory) {\r\n        return medicalRecords[_key];\r\n    }\r\n\r\n    // getAll functions\r\n\r\n    function getAllPatients() public view returns (Patient[] memory) {\r\n        Patient[] memory allPatients = new Patient[](patientIds.length);\r\n        for (uint i = 0; i < patientIds.length; i++) {\r\n            allPatients[i] = patients[patientIds[i]];\r\n        }\r\n        return allPatients;\r\n    }\r\n\r\n    function getAllDoctors() public view returns (Doctor[] memory) {\r\n        Doctor[] memory allDoctors = new Doctor[](doctorIds.length);\r\n        for (uint i = 0; i < doctorIds.length; i++) {\r\n            allDoctors[i] = doctors[doctorIds[i]];\r\n        }\r\n        return allDoctors;\r\n    }\r\n\r\n    function getAllDates() public view returns (Date[] memory) {\r\n        Date[] memory allDates = new Date[](dateKeys.length);\r\n        for (uint i = 0; i < dateKeys.length; i++) {\r\n            allDates[i] = dates[dateKeys[i]];\r\n        }\r\n        return allDates;\r\n    }\r\n\r\n    function getAllMedicals() public view returns (Medical[] memory) {\r\n        Medical[] memory allMedicals = new Medical[](medicalKeys.length);\r\n        for (uint i = 0; i < medicalKeys.length; i++) {\r\n            allMedicals[i] = medicals[medicalKeys[i]];\r\n        }\r\n        return allMedicals;\r\n    }\r\n\r\n    function getAllMedicalRecords() public view returns (MedicalRecord[] memory) {\r\n        MedicalRecord[] memory allRecords = new MedicalRecord[](medicalRecordIds.length);\r\n        for (uint i = 0; i < medicalRecordIds.length; i++) {\r\n            allRecords[i] = medicalRecords[medicalRecordIds[i]];\r\n        }\r\n        return allRecords;\r\n    }\r\n}\r\n",
  "sourcePath": "C:\\Users\\thanh\\OneDrive\\My tnh\\smart-contract\\contracts\\MedicalRecord.sol",
  "compiler": {
    "name": "solc",
    "version": "0.8.19+commit.7dd6d404.Emscripten.clang"
  },
  "schemaVersion": "3.4.16",
  "updatedAt": "2024-09-24T07:55:46.972Z",
  "devdoc": {
    "kind": "dev",
    "methods": {},
    "version": 1
  },
  "userdoc": {
    "kind": "user",
    "methods": {},
    "version": 1
  }
}